S02300005065646573747269616E20436F6D6D756E69636174696F6E2076322E73726563B4
S11300000C942A000C9420010C9437010C944700A2
S11300100C9447000C9447000C9447000C94470040
S11300200C9447000C9447000C9447000C949F01D7
S11300300C9447000C9447000C9447000C94470020
S11300400C9447000C9447000C9447000C94470010
S11300500C94470011241FBECFE5D8E0DEBFCDBF0E
S113006010E0A0E6B0E0E0E4F7E002C005900D92F5
S1130070A436B107D9F720E0A4E6B0E001C01D9290
S1130080AE36B207E1F70E94C4000C949E030C94B0
S1130090000087B38F6087BB87B38F7487BBC39817
S11300A0C79A81B3837F81BB8BB7806C8BBF85B7C5
S11300B08A6085BF89B7816089BF7894089581304B
S11300C09105A9F4C39A2FE38DE093E02150804079
S11300D09040E1F700C00000C3982FE38DE093E067
S11300E0215080409040E1F700C000000895823024
S11300F0910579F4C39A83E294EF0197F1F700C074
S11301000000C39883E294EF0197F1F700C0000068
S11301100895039709F4C39A089525E030E088B35D
S1130120876088BB87EA91E60197F1F700C0000079
S113013088B3887F88BB87EA91E60197F1F700C00E
S113014000002150310959F781E090E00E945F00DE
S113015082E090E00E945F0010C0B49903C0C19A8D
S1130160C09802C0C09AC198829B04C0839B02C0FD
S1130170B59902C0C29A01C0C298B79BEECF88B3AA
S1130180887F88BBC39808950E944900B79903C02B
S11301900E948D00FBCFC0906400D0906500E09079
S11301A06600F090670020E030E0A901C701B601C5
S11301B00E942C031816F4F520E030E040E752E4E6
S11301C0C701B6010E94CD0188235CF5C19A88B3AA
S11301D08A7F88BBC0906400D0906500E090660080
S11301E0F090670020E030E040EF51E4C701B60131
S11301F00E94CD0188232CF481E090E00E945F00EE
S1130200C5CF20E030E040E752E4C701B6010E94C8
S1130210CD0188230CF0BACF82E090E00E945F0009
S1130220B5CFC29A88B38C7F88BB83E090E00E94EC
S11302305F00ACCFC09A88B3897F88BBC398A6CF30
S11302401F920F920FB60F9211248F939F938EB526
S113025085608EBD81E090E090936D0080936C008A
S11302609F918F910F900FBE0F901F9018951F9222
S11302700F920FB60F9211242F933F934F935F93D6
S11302806F937F938F939F93AF93BF93EF93FF935A
S113029080916C0090916D00019709F03FC01EBCE5
S11302A06CB57DB580E090E00E947A022FE632E1E1
S11302B043E85FE30E9431030E94440270936900A3
S11302C060936800072E000C880B990B0E947C0237
S11302D09B01AC01609160007091610080916200AB
S11302E0909163000E94D20120E030E041E655E4A1
S11302F00E943103609364007093650080936600EC
S1130300909367001DBC1CBC10926D0010926C0091
S113031083B7856083BF8BB78F738BBFFF91EF91DA
S1130320BF91AF919F918F917F916F915F914F9109
S11303303F912F910F900FBE0F901F9018951F9211
S11303400F920FB60F9211248F939F9380916A009E
S113035090916B00019690936B0080936A0087974D
S1130360ACF013BE12BE10926B0010926A00109291
S1130370640010926500109266001092670010925B
S11303806900109268008BB7806C8BBF9F918F912E
S11303900F900FBE0F901F9018950E94B70208F49B
S11303A081E008950E94E6010C94F2020E94EB029F
S11303B058F00E94E40240F029F45F3F29F00C94C5
S11303C0DB0251110C9426030C94E1020E940303F6
S11303D068F39923B1F3552391F3951B550BBB2770
S11303E0AA2762177307840738F09F5F5F4F220FB5
S11303F0331F441FAA1FA9F335D00E2E3AF0E0E8AC
S113040032D091505040E695001CCAF72BD0FE2FF5
S113041029D0660F771F881FBB1F26173707480789
S1130420AB07B0E809F0BB0B802DBF01FF27935841
S11304305F4F3AF09E3F510578F00C94DB020C9428
S113044026035F3FE4F3983ED4F38695779567954A
S1130450B795F7959F5FC9F7880F911D9695879576
S113046097F90895E1E0660F771F881FBB1F621795
S113047073078407BA0720F0621B730B840BBA0B53
S1130480EE1F88F7E09508950E944B026894B1111D
S11304900C94260308950E940B0388F09F5798F04C
S11304A0B92F9927B751B0F0E1F0660F771F881F75
S11304B0991F1AF0BA95C9F714C0B13091F00E948F
S11304C02503B1E008950C942503672F782F88271E
S11304D0B85F39F0B93FCCF3869577956795B395B6
S11304E0D9F73EF490958095709561957F4F8F4F25
S11304F09F4F0895E89409C097FB3EF4909580952A
S1130500709561957F4F8F4F9F4F9923A9F0F92FD5
S113051096E9BB279395F695879577956795B79553
S1130520F111F8CFFAF4BB0F11F460FF1BC06F5F39
S11305307F4F8F4F9F4F16C0882311F096E911C04B
S1130540772321F09EE8872F762F05C0662371F06C
S113055096E8862F70E060E02AF09A95660F771F80
S1130560881FDAF7880F9695879597F90895990F5C
S11305700008550FAA0BE0E8FEEF16161706E80769
S1130580F907C0F012161306E407F50798F0621B8A
S1130590730B840B950B39F40A2661F0232B242B5F
S11305A0252B21F408950A2609F4A140A6958FEF7E
S11305B0811D811D089597F99F6780E870E060E0D0
S11305C008959FEF80EC089500240A9416161706E8
S11305D018060906089500240A9412161306140630
S11305E005060895092E0394000C11F4882352F093
S11305F0BB0F40F4BF2B11F460FF04C06F5F7F4F4B
S11306008F4F9F4F089557FD9058440F551F59F031
S11306105F3F71F04795880F97FB991F61F09F3FEB
S113062079F087950895121613061406551FF2CF14
S11306304695F1DF08C0161617061806991FF1CF64
S113064086957105610508940895E894BB2766278B
S11306507727CB0197F908950E94B70208F48FEF2A
S113066008950E9444030C94F2020E94E40238F0BC
S11306700E94EB0220F0952311F00C94DB020C9401
S1130680E10211240C9426030E94030370F3959F46
S1130690C1F3950F50E0551F629FF001729FBB2775
S11306A0F00DB11D639FAA27F00DB11DAA1F649F11
S11306B06627B00DA11D661F829F2227B00DA11DC4
S11306C0621F739FB00DA11D621F839FA00D611D4A
S11306D0221F749F3327A00D611D231F849F600D6B
S11306E0211D822F762F6A2F11249F5750409AF094
S11306F0F1F088234AF0EE0FFF1FBB1F661F771F20
S1130700881F91505040A9F79E3F510580F00C94EA
S1130710DB020C9426035F3FE4F3983ED4F3869502
S113072077956795B795F795E7959F5FC1F7FE2B8A
S1130730880F911D9695879597F90895F894FFCFA2
S10707409A99193E27
S9030000FC
