S00E00004361722076322E7372656338
S11300000C942A000C9447000C9460020C94470052
S11300100C9447000C9449020C9447000C9447003C
S11300200C9447000C9447000C9447000C94320243
S11300300C9447000C9447000C9447000C94470020
S11300400C9447000C9447000C9447000C94470010
S11300500C94470011241FBECFE5D8E0DEBFCDBF0E
S113006011E0A0E6B0E0E6E6F8E002C005900D92EB
S1130070A436B107D9F721E0A4E6B1E001C01D928E
S1130080A237B207E1F70E9478010C9431040C9472
S11300900000C29A00000000C29808951ABAC19ADA
S11300A0C098DF9B04C00E944900DF99FCCF8FEF0A
S11300B08ABB0895CF93C82F0E944E00CBBB88B350
S11300C08C7F88BB0E9449001BBACF91089587B3E7
S11300D0876087BB85EA9EE00197F1F700C00000C6
S11300E081E00E945A0083EF91E00197F1F700C08C
S11300F0000088E30E945A0090E19A95F1F700C04D
S11301008CE00E945A0080E18A95F1F700C086E0F5
S11301100E945A0083ED90E30197F1F700C00000BC
S1130120089581E00E945A0083EF91E00197F1F76E
S113013000C000000895CF93C82F0E944E00CBBB8F
S1130140C198C09A0E9449001BBACF910895CF93D9
S1130150DF93EC018881882331F021960E949B0073
S113016089918111FBCFDF91CF9108950F931F9354
S1130170CF93DF938830D8F48B01880F880F880FD2
S1130180805C0E945A0080E18A95F1F700C0E80182
S1130190085F1F4F89910E949B00C017D107D1F7B8
S11301A080E80E945A0080E18A95F1F700C0DF914F
S11301B0CF911F910F910895CF93DF93CDB7DEB701
S11301C028970FB6F894DEBF0FBECDBF8C9A81B3CB
S11301D0837F81BB87B3806C87BB82B3846182BB1E
S11301E08BB780688BBF85B7886085BF0E94670026
S11301F00E94910080EC0E945A0020E12A95F1F7B8
S113020000C088E690E00E94A700949A8FE39DE0E6
S113021023E0815090402040E1F700C00000949812
S11302200E94910088E0E0E6F0E0DE011196019082
S11302300D928A95E1F7BE016F5F7F4F80E00E94C7
S1130240B600789428960FB6F894DEBF0FBECDBFE3
S1130250DF91CF91089580E80E945A0080E18A9549
S1130260F1F700C080E00E949B0083E90E945A00DD
S113027080E18A95F1F700C080E00E949B0084ED44
S11302800E945A0080E18A95F1F700C080E00E9444
S11302909B0087EE0E945A0080E18A95F1F700C026
S11302A080E00E949B0080EC0E945A0080E18A95C5
S11302B0F1F700C08DE790E00E94A70016C084E922
S11302C00E945A0080E18A95F1F700C0809168018C
S11302D090916901029729F482E990E00E94A700B5
S11302E004C087EA90E00E94A700829BE8CF0895AB
S11302F00E94DC00C1E0D0E0829907C00E942B017B
S11303001092650110926401F7CF8091640190917D
S11303106501892B09F03EC00E949100F894109267
S1130320710110927001109269011092680110928B
S113033067011092660180EC0E945A0020E12A9520
S1130340F1F700C08CEB90E00E94A7008FE79AE1E0
S113035026E0815090402040E1F700C0000080EC8E
S11303600E945A0080E18A95F1F700C081ED90E087
S11303700E94A7009FE32DE083E09150204080403D
S1130380E1F700C00000D0936501C09364010E94AE
S11303909100789480EC0E945A0090E19A95F1F7CC
S11303A000C08091680190916901009781F486EE04
S11303B090E00E94A70084E90E945A0020E12A9557
S11303C0F1F700C08BEF90E00E94A70095CF813039
S11303D0910581F480E191E00E94A70084E90E94E4
S11303E05A0080E18A95F1F700C08BEF90E00E94FB
S11303F0A70082CF8230910581F485E291E00E94CA
S1130400A70084E90E945A0090E19A95F1F700C090
S11304108AE391E00E94A7006FCF039709F06CCFA5
S11304208FE491E00E94A70084E90E945A0020E131
S11304302A95F1F700C08BEF90E00E94A7005CCFF3
S1130440019731F485E083BF89B7816089BF08953E
S113045013BE12BE89B78E7F89BF10926D011092B0
S11304606C0108951F920F920FB60F9211248F936F
S11304709F9380916C0190916D01019690936D0111
S113048080936C019F918F910F900FBE0F901F90DE
S113049018951F920F920FB60F9211248F939F936A
S11304A080916A0190916B01019690936B01809306
S11304B06A019F918F910F900FBE0F901F90189516
S11304C01F920F920FB60F9211242F933F934F93C5
S11304D05F936F937F938F939F93AF93BF93EF93A8
S11304E0FF938091700190917101892B71F48EB505
S11304F085608EBD81E090E09093710180937001DE
S113050010926F0110926E016AC01EBC6CB57DB56D
S113051080E090E00E9436032FE632E143E85FE397
S11305200E949C030E94000370936F0160936E010C
S11305301DBC1CBC109271011092700180916E015F
S113054090916F018931910524F410926701109202
S113055066019C012A5131092E30310538F481E0BD
S113056090E0909367018093660116C09C01295224
S113057031092331310538F482E090E0909367012A
S11305808093660109C0CD97879730F483E090E0AB
S11305909093670180936601209166013091670111
S11305A0809168019091690128173907A1F081E0D1
S11305B090E00E94200282B7833988F0809166011E
S11305C090916701909369018093680180E090E0C5
S11305D00E94200204C080E090E00E942002FF916B
S11305E0EF91BF91AF919F918F917F916F915F91A7
S11305F04F913F912F910F900FBE0F901F90189520
S11306000E9407036894B1110C94960308950E9404
S11306107B0388F09F5798F0B92F9927B751B0F012
S1130620E1F0660F771F881F991F1AF0BA95C9F772
S113063014C0B13091F00E949503B1E008950C9478
S11306409503672F782F8827B85F39F0B93FCCF32B
S1130650869577956795B395D9F73EF490958095EF
S1130660709561957F4F8F4F9F4F0895E89409C00F
S113067097FB3EF490958095709561957F4F8F4FD1
S11306809F4F9923A9F0F92F96E9BB279395F695E7
S1130690879577956795B795F111F8CFFAF4BB0F65
S11306A011F460FF1BC06F5F7F4F8F4F9F4F16C0C9
S11306B0882311F096E911C0772321F09EE8872F53
S11306C0762F05C0662371F096E8862F70E060E00F
S11306D02AF09A95660F771F881FDAF7880F969588
S11306E0879597F9089557FD9058440F551F59F071
S11306F05F3F71F04795880F97FB991F61F09F3F0B
S113070079F087950895121613061406551FF2CF33
S11307104695F1DF08C0161617061806991FF1CF83
S113072086957105610508940895E894BB276627AA
S11307307727CB0197F908950E94AF030C94200406
S11307400E94120438F00E94190420F0952311F03D
S11307500C9409040C940F0411240C9496030E9425
S1130760730370F3959FC1F3950F50E0551F629F7B
S1130770F001729FBB27F00DB11D639FAA27F00DF6
S1130780B11DAA1F649F6627B00DA11D661F829F1D
S11307902227B00DA11D621F739FB00DA11D621F02
S11307A0839FA00D611D221F749F3327A00D611D1F
S11307B0231F849F600D211D822F762F6A2F112401
S11307C09F5750409AF0F1F088234AF0EE0FFF1F34
S11307D0BB1F661F771F881F91505040A9F79E3F8B
S11307E0510580F00C9409040C9496035F3FE4F3E4
S11307F0983ED4F3869577956795B795F795E795E1
S11308009F5FC1F7FE2B880F911D9695879597F9E9
S1130810089597F99F6780E870E060E008959FEF7E
S113082080EC089500240A94161617061806090683
S1130830089500240A941216130614060506089552
S1130840092E0394000C11F4882352F0BB0F40F4DA
S1130850BF2B11F460FF04C06F5F7F4F8F4F9F4F1A
S10908600895F894FFCF97
S11308660000150E1B0E15002020205379737465A5
S11308766D204163746976652020202000202020A5
S113088620434F4E464947204D4F444520202020C3
S113089620002020202052462044455445435445F8
S11308A64420202020200020202057414954494E2E
S11308B64720464F52205246202020002020204721
S11308C6455454494E47202052454144592020203E
S11308D60020202020202020524541445920202059
S11308E620202020200020202020204472697665C4
S11308F6205361666520202020200020202020200F
S113090620202020202020202020202020202000FD
S113091620202043524F5353494E472041484541D6
S1130926442020200020202020202020414C455215
S11309365420202020202020200050454445535494
S11309465249414E202044455445435445440020D1
S113095620202020534C4F5720444F574E2120200F
S10709662020200029
S9030000FC
