:100000000C942A000C9401010C942F010C943C00D8
:100010000C943C000C943C000C943C000C943C0070
:100020000C943C000C943C000C943C000C94520149
:100030000C943C000C943C000C943C000C943C0050
:100040000C943C000C943C000C943C000C943C0040
:100050000C943C0011241FBECFE5D8E0DEBFCDBF1D
:1000600020E0A0E6B0E001C01D92AC36B207E1F797
:100070000E9499000C94B1010C94000087B3876032
:1000800087BBBF9881B3866081BB81B3837F81BB0F
:10009000C79A8BB7806C8BBF85B7856085BF89B7E2
:1000A000816089BF78940895919A83E08A95F1F7E9
:1000B0000000919880916800909169006AE370E077
:1000C0000E948901CB010895B79921C00E94540074
:1000D00090936100809360008436910514F4C09879
:1000E00001C0C09A839902C0C19801C0C19AC29A46
:1000F00087E59BE10197F1F700C00000C29887E512
:100100009BE10197F1F700C00000B79BDFCF13BE62
:1001100010926500109264001092630010926200C9
:1001200010926B0010926A001092690010926800A1
:1001300008950E943E00C1E0D0E0B79903C00E943C
:100140006400FBCF0E945400909361008093600094
:1001500084369105B4F48091640090916500019714
:1001600009F048C0D0936300C0936200109265000C
:100170001092640010926700109266008BB78F7B1C
:100180008BBF8091620090916300019779F4C29ACD
:100190008DE292E20197F1F700C00000C2988DE273
:1001A00092E20197F1F700C00000C7CF8091640090
:1001B00090916500019779F4C29A87E59BE10197D8
:1001C000F1F700C00000C29887E59BE10197F1F7C5
:1001D00000C00000B2CFC29A87E893E10197F1F71F
:1001E00000C00000C29887E893E10197F1F700C0D2
:1001F0000000A3CF8091620090916300019759F7AE
:10020000C6CF1F920F920FB60F9211248F939F9318
:1002100080916A0090916B008130910571F41EBC51
:100220008CB59DB590936900809368001DBC1CBC83
:1002300010926B0010926A0002C0892B49F48EB5AF
:1002400081608EBD81E090E090936B0080936A00A6
:100250009F918F910F900FBE0F901F9018951F9236
:100260000F920FB60F9211248F939F93809162008B
:1002700090916300892B79F48091640090916500DE
:10028000892B49F483B7856083BF81E090E0909328
:100290006500809364009F918F910F900FBE0F9027
:1002A0001F9018951F920F920FB60F9211248F93E3
:1002B0009F938091660090916700019690936700EC
:1002C000809366008797F4F08091640090916500B8
:1002D000019729F410926500109264000DC080917E
:1002E000620090916300019739F4109263001092BC
:1002F00062008BB780648BBF13BE12BE1092670082
:10030000109266009F918F910F900FBE0F901F90DB
:10031000189597FB072E16F4009407D077FD09D0A7
:100320000E949D0107FC05D03EF4909581959F4F5A
:100330000895709561957F4F0895AA1BBB1B51E1ED
:1003400007C0AA1FBB1FA617B70710F0A61BB70B45
:10035000881F991F5A95A9F780959095BC01CD01EA
:060360000895F894FFCFA0
:00000001FF
